:100000000C942A000C9447000C9447000C94470071
:100010000C9447000C9447000C94E7070C9447009D
:100020000C9447000C9447000C9447000C94470034
:100030000C9447000C9447000C9447000C94470024
:100040000C9447000C9447000C9447000C94470014
:100050000C94470011241FBECFE5D4E0DEBFCDBF16
:1000600010E0A0E6B0E0EEEFF4E102C005900D92E2
:10007000A638B107D9F710E0A6E8B0E001C01D929C
:10008000AB38B107E1F70E9467070C947D0A0C9426
:100090000000EF92FF920F931F937B018C0120E0F1
:1000A00030E040E05FE40E94490388238CF0C801FF
:1000B000B70120E030E040E05FE40E94C1010E940F
:1000C000A9039B01AC01205030404040504806C07D
:1000D000C801B7010E94A9039B01AC01B901CA0183
:1000E0001F910F91FF90EF900895A0E0B0E0EBE733
:1000F000F0E00C94460ADC012B01FA019C9192304D
:1001000008F439C1EB018881823008F433C194309E
:1001100069F4843009F02FC111969C91119789815F
:10012000981709F428C1A0E6B0E025C1843009F48D
:1001300021C18230A9F4923009F01DC19A01AD01AC
:1001400088E0EA010990AE01E90109929E0181501F
:10015000C1F7E201898111969C918923818308C1AD
:10016000923009F407C112962D903C901397EB0141
:100170008A819B811496AD90BD90CD90DC901797AD
:10018000EC80FD800E811F819101281B390BB90184
:1001900037FF04C066277727621B730B6032710537
:1001A0000CF061C0121613066CF537014801062EDB
:1001B00004C096948794779467940A94D2F721E0C8
:1001C00030E040E050E004C0220F331F441F551FB1
:1001D0006A95D2F721503040404050402E213F21B7
:1001E00040235123211531054105510521F021E01E
:1001F00030E040E050E079018A01E628F72808293C
:1002000019293CC0232BD1F1260E371E350146019A
:10021000062E04C096948794779467940A94D2F734
:1002200021E030E040E050E004C0220F331F441FC3
:10023000551F6A95D2F721503040404050402A2146
:100240003B214C215D21211531054105510521F04E
:1002500021E030E040E050E059016A01A628B728CB
:10026000C828D9280BC0821593052CF01C01AA249C
:10027000BB24650103C0EE24FF24870111969C91E5
:10028000D20111968C91981709F445C0992339F041
:10029000A80197012A193B094C095D0906C0A6016E
:1002A00095012E193F09400B510B57FD08C01182D3
:1002B0003382228224833583468357831DC081E0A5
:1002C00081833382228288279927DC01821B930B4A
:1002D000A40BB50B84839583A683B7830DC0220F2F
:1002E000331F441F551F24833583468357838281E0
:1002F000938101979383828324813581468157813D
:10030000DA01C9010197A109B1098F5F9F4FAF4F72
:10031000BF4328F30BC0918333822282EA0CFB1C7B
:100320000C1D1D1DE482F5820683178383E0808304
:10033000248135814681578157FF1AC0C901AA27F8
:1003400097FDA095BA2F81709070A070B0705695EF
:10035000479537952795822B932BA42BB52B848318
:100360009583A683B7838281938101969383828349
:10037000DF0101C0D201CD01CDB7DEB7E2E10C94BF
:10038000620AA0E2B0E0E7ECF1E00C94520A698363
:100390007A838B839C832D833E834F835887E9E048
:1003A000EE2EF12CEC0EFD1ECE010196B7010E943F
:1003B000D2048E010F5E1F4FCE010596B8010E9438
:1003C000D2048A8991E089278A8BC701B801AE01DE
:1003D000475E5F4F0E9475000E94FD03A096E6E015
:1003E0000C946E0AA0E2B0E0E8EFF1E00C94520A3F
:1003F00069837A838B839C832D833E834F835887C5
:10040000F9E0EF2EF12CEC0EFD1ECE010196B701A6
:100410000E94D2048E010F5E1F4FCE010596B801D7
:100420000E94D204C701B801AE01475E5F4F0E942F
:1004300075000E94FD03A096E6E00C946E0AA0E20F
:10044000B0E0E5E2F2E00C94460A69837A838B839C
:100450009C832D833E834F835887CE010196BE0136
:10046000675F7F4F0E94D204CE010596BE016F5E8A
:100470007F4F0E94D2049985923088F0898982301A
:10048000C8F0943019F4823051F404C0843029F457
:10049000923081F480E690E0C6C0923049F420E0CA
:1004A0009A858A89981321E02A87CE010996BBC0D4
:1004B000823049F420E09A858A89981321E02A8BBA
:1004C000CE014196B0C02D843E844F8458886D88FB
:1004D0007E888F88988CEE24FF248701AA24BB2471
:1004E000650140E050E060E070E0E0E0F0E0C10174
:1004F00081709070892BE9F0E60CF71C081D191D1E
:100500009A01AB012A0D3B1D4C1D5D1D80E090E062
:10051000A0E0B0E0E614F7040805190520F481E036
:1005200090E0A0E0B0E0BA01A901480F591F6A1F8E
:100530007B1FAA0CBB1CCC1CDD1C97FE08C081E0F5
:1005400090E0A0E0B0E0A82AB92ACA2ADB2A3196B6
:10055000E032F10549F0660C771C881C991C569412
:10056000479437942794C3CFFA85EA892B893C892D
:100570008B859C85280F391F2E5F3F4F17C0CA01FE
:1005800081709070892B61F016950795F794E79428
:1005900080E090E0A0E0B0E8E82AF92A0A2B1B2BC3
:1005A00076956795579547952F5F3F4F77FDE7CF36
:1005B0000CC0440F551F661F771F17FD4160EE0CDE
:1005C000FF1C001F111F21503040403090E05907A0
:1005D00090E0690790E4790760F32B8F3C8FDB0193
:1005E000CA018F779070A070B07080349105A1051A
:1005F000B10561F447FD0AC0E114F10401051105DC
:1006000029F0405C5F4F6F4F7F4F40781A8EFE1786
:1006100011F081E08A8F4D8F5E8F6F8F78A383E01A
:10062000898FCE0149960E94FD03A096E2E10C94C9
:10063000620AA8E1B0E0EFE1F3E00C94520A6983AA
:100640007A838B839C832D833E834F83588789E0F5
:10065000E82EF12CEC0EFD1ECE010196B7010E9492
:10066000D2048E010F5E1F4FCE010596B8010E9485
:10067000D2048985823040F08989823028F0C70110
:10068000B8010E944A0501C08FEF6896E6E00C941D
:100690006E0AA8E1B0E0EFE4F3E00C94520A69833B
:1006A0007A838B839C832D833E834F83588789E095
:1006B000E82EF12CEC0EFD1ECE010196B7010E9432
:1006C000D2048E010F5E1F4FCE010596B8010E9425
:1006D000D2048985823040F08989823028F0C701B0
:1006E000B8010E944A0501C08FEF6896E6E00C94BD
:1006F0006E0AA8E1B0E0EFE7F3E00C94520A6983D8
:100700007A838B839C832D833E834F83588789E034
:10071000E82EF12CEC0EFD1ECE010196B7010E94D1
:10072000D2048E010F5E1F4FCE010596B8010E94C4
:10073000D2048985823040F08989823028F0C7014F
:10074000B8010E944A0501C081E06896E6E00C9479
:100750006E0AACE0B0E0EFEAF3E00C94560A69836D
:100760007A838B839C83CE010196BE016B5F7F4FA2
:100770000E94D2048D81823061F1823050F1843048
:1007800021F48E81882351F12EC02F81388537FDC9
:1007900020C06E812F3131051CF06623F9F023C093
:1007A0008EE190E0821B930B29853A854B855C8511
:1007B00004C056954795379527958A95D2F76623B5
:1007C000B1F050954095309521953F4F4F4F5F4F79
:1007D0000EC020E030E040E050E009C02FEF3FEFD6
:1007E0004FEF5FE704C020E030E040E050E8B9019F
:1007F000CA012C96E2E00C94720ADF92EF92FF920B
:100800000F931F93FC01E480F58006811781D1804E
:100810008081823048F480E090E0A0E1B0E0E82AF6
:10082000F92A0A2B1B2BA5C0843009F49FC0823003
:1008300021F4EE24FF24870105C0E114F104010531
:10084000110519F4E0E0F0E096C0628173819FEF3A
:10085000623879070CF05BC022E83FEF261B370BAC
:100860002A3131052CF020E030E040E050E02AC091
:10087000B801A701022E04C0769567955795479554
:100880000A94D2F781E090E0A0E0B0E004C0880FC5
:10089000991FAA1FBB1F2A95D2F70197A109B10979
:1008A0008E219F21A023B1230097A105B10521F03E
:1008B00081E090E0A0E0B0E09A01AB01282B392B59
:1008C0004A2B5B2BDA01C9018F779070A070B07052
:1008D00080349105A105B10539F427FF09C0205CDA
:1008E0003F4F4F4F5F4F04C0215C3F4F4F4F5F4F13
:1008F000E0E0F0E02030A0E03A07A0E04A07A0E402
:100900005A0710F0E1E0F0E079018A0127C0603871
:10091000710564F5FB01E158FF4FD801C7018F77DE
:100920009070A070B07080349105A105B10539F4C4
:10093000E7FE0DC080E490E0A0E0B0E004C08FE3EB
:1009400090E0A0E0B0E0E80EF91E0A1F1B1F17FFA1
:1009500005C016950795F794E794319687E01695AC
:100960000795F794E7948A95D1F705C0EE24FF2404
:100970008701EFEFF0E06E2F679566276795902F60
:100980009F77D794DD24D7948E2F8695492F462BB9
:10099000582F5D29B701CA011F910F91FF90EF9069
:1009A000DF900895FC01DB01408151812281622F9B
:1009B0006F7770E0221F2227221F9381892F880FD3
:1009C000822B282F30E0991F9927991F11969C930D
:1009D000119721153105A9F54115510561057105DD
:1009E00011F482E037C082E89FEF13969C938E93B8
:1009F00012979A01AB0167E0220F331F441F551F66
:100A00006A95D1F783E08C930DC0220F331F441FEA
:100A1000551F12968D919C911397019713969C9355
:100A20008E931297203080E0380780E0480780E4FA
:100A3000580758F314962D933D934D935C93179755
:100A400008952F3F310579F4411551056105710570
:100A500019F484E08C93089564FF03C081E08C93C3
:100A600012C01C9210C02F57304013963C932E9307
:100A7000129783E08C9387E0440F551F661F771F02
:100A80008A95D1F7706414964D935D936D937C9322
:100A9000179708951F93DC01FB019C91923008F495
:100AA00047C08081823008F443C0943051F41196DD
:100AB0001C91843099F58181682F70E0611B710968
:100AC0003FC0843021F0923031F48230B9F181811D
:100AD000882389F12DC011961C9111978230F1F075
:100AE00081811817D9F412962D913C911397828128
:100AF00093818217930794F028173907BCF0149656
:100B00008D919D910D90BC91A02D248135814681C0
:100B10005781281739074A075B0718F4112341F05A
:100B20000AC082179307A407B50740F4112319F0F0
:100B300061E070E005C06FEF7FEF02C060E070E041
:100B4000CB011F910895DF93CF93CDB7DEB7789493
:100B5000E9E5F0E080E18083ECE4F0E011821082CE
:100B6000EAE4F0E082EE94E091838083EFE4F0E049
:100B70001082EEE4F0E08CE08083CF91DF91089565
:100B8000DF93CF93CDB7DEB7EAE3F0E080EF808369
:100B9000EBE3F0E08FEF8083CF91DF910895DF9357
:100BA000CF93CDB7DEB7E3970FB6F894DEBF0FBE95
:100BB000CDBFCE014F9698AB8FA7E5E7F0E0FAAB3B
:100BC000E9ABF0E1FBABE9A9FAA9008089A99AA9F0
:100BD00001969AAB89ABEFA5F8A900828FA598A9D9
:100BE000019698AB8FA79BA991509BABEBA9EE23E5
:100BF00051F7ABE3B0E0EBE3F0E080818F708C93D2
:100C0000E9E3F0E080818F708E8F8E8D8F3089F7D1
:100C100080E090E0A0EAB1E4898F9A8FAB8FBC8F1F
:100C2000698D7A8D8B8D9C8D20E030E04AE753E40E
:100C30000E941F02DC01CB018D8B9E8BAF8BB88F86
:100C40006D897E898F89988D20E030E040E85FE3F0
:100C50000E94790388232CF481E090E09C8B8B8B9D
:100C60003FC06D897E898F89988D20E03FEF4FE7E7
:100C700057E40E94190318164CF5698D7A8D8B8DF7
:100C80009C8D20E030E040E251E40E941F02DC0134
:100C9000CB01BC01CD010E944900DC01CB019C8B42
:100CA0008B8B0FC089E190E09A8B898B89899A8917
:100CB0000197F1F79A8B898B8B899C8901979C8B83
:100CC0008B8B8B899C89009769F714C06D897E890D
:100CD0008F89988D0E944900DC01CB019C8B8B8B06
:100CE0008B899C89988B8F878F8598890197F1F7DD
:100CF000988B8F87E9E3F0E080818F708E8F8E8DE7
:100D00008F3009F485CF80E090E0A0EAB1E48B87D2
:100D10009C87AD87BE876B857C858D859E8520E011
:100D200030E04AE753E40E941F02DC01CB018F83CD
:100D30009887A987BA876F81788589859A8520E009
:100D400030E040E85FE30E94790388232CF481E0DF
:100D500090E09E838D833FC06F81788589859A85D9
:100D600020E03FEF4FE757E40E94190318164CF5B7
:100D70006B857C858D859E8520E030E040E251E4E6
:100D80000E941F02DC01CB01BC01CD010E94490081
:100D9000DC01CB019E838D830FC089E190E09C83B1
:100DA0008B838B819C810197F1F79C838B838D8151
:100DB0009E8101979E838D838D819E81009769F727
:100DC00014C06F81788589859A850E944900DC016D
:100DD000CB019E838D838D819E819A8389838981B6
:100DE0009A810197F1F79A838983E9E3F0E08081A2
:100DF0008F708E8F8E8D8F3009F40ACFEBE3F0E089
:100E00008FEE8083E9E3F0E080818F708E8F8E8D8E
:100E10008F3011F01D8E2CC0EBE3F0E08FED80835E
:100E2000E9E3F0E080818F708E8F8E8D8F3019F026
:100E300081E08D8F1DC0EBE3F0E08FEB8083E9E371
:100E4000F0E080818F708E8F8E8D8F3019F082E070
:100E50008D8F0EC0EBE3F0E08FE78083E9E3F0E0F5
:100E600080818F708E8F8E8D8F3041F283E08D8FD9
:100E70008E8D8E3011F41E8E0EC08E8D8D3019F435
:100E800081E08E8F08C08E8D8B3019F482E08E8FBA
:100E900002C083E08E8F8D8D282F30E08E8D482FFD
:100EA00050E0220F331F220F331FCE010196820F15
:100EB000931F840F951FFC017E968081E3960FB6E9
:100EC000F894DEBF0FBECDBFCF91DF910895DF93C1
:100ED000CF930F92CDB7DEB7A7E3B0E0E7E3F0E042
:100EE00080818E7F8C93A8E3B0E0E8E3F0E080811E
:100EF00081608C93A7E3B0E0E7E3F0E080818B7F33
:100F00008C93A8E3B0E0E8E3F0E0808184608C9308
:100F1000A7E3B0E0E7E3F0E0808182608C93A7E391
:100F2000B0E0E7E3F0E0808188608C93A7E3B0E075
:100F3000E7E3F0E0808180618C93A7E3B0E0E7E332
:100F4000F0E0808180628C93A4E3B0E0E4E3F0E021
:100F5000808180648C93A7E3B0E0E7E3F0E08081D8
:100F600080648C93A7E3B0E0E7E3F0E080818068E1
:100F70008C93A4E3B0E0E4E3F0E0808180688C939C
:100F8000A1E3B0E0E1E3F0E080818F678C93A4E31C
:100F9000B0E0E4E3F0E0808181608C93A4E3B0E012
:100FA000E4E3F0E0808182608C930E94A3050E94BC
:100FB000C0050E94CF05898389818133D0F389815F
:100FC0008433B8F78981805380937400F2CF1F92E5
:100FD0000F920FB60F9211242F933F934F935F936D
:100FE0006F937F938F939F93AF93BF93EF93FF93F1
:100FF000DF93CF93CDB7DEB76C97DEBFCDBF8091C7
:101000008A008F5F80938A0080918A00882F90E009
:10101000817090708823A1F0A5E3B0E0E5E3F0E0F3
:1010200080818C7F81608C93A2E3B0E0809172001C
:10103000882F90E0FC01E859FF4F80818C9313C00A
:10104000A5E3B0E0E5E3F0E080818C7F82608C93E3
:10105000A2E3B0E080917300882F90E0FC01E85992
:10106000FF4F80818C93E6E3F0E08081882F90E051
:1010700084709070009741F4A8E3B0E0E8E3F0E0FA
:10108000808188608C9307C0A8E3B0E0E8E3F0E0DB
:101090008081877F8C93E6E3F0E08081882F90E069
:1010A00081709070009791F4A8E3B0E0E8E3F0E07D
:1010B000808182608C9381E0809388008091880099
:1010C0008093890084E18093740007C0A8E3B0E0B6
:1010D000E8E3F0E080818D7F8C938091740084310F
:1010E00009F47AC080917300823021F080917400FD
:1010F000823041F4809189008823C1F58091880075
:101100008823A1F19091720080917400891790F466
:10111000A8E3B0E0E8E3F0E080818F7D8C93A8E362
:10112000B0E0E8E3F0E0808180618C938FEF809302
:10113000890017C09091720080917400981788F40C
:10114000A8E3B0E0E8E3F0E0808180628C93A8E35C
:10115000B0E0E8E3F0E080818F7E8C938FEF8093A6
:101160008900809174008093720033C09091730065
:1011700080917400891790F4A8E3B0E0E8E3F0E010
:1011800080818F778C93A8E3B0E0E8E3F0E0808182
:1011900080648C938FEF8093880017C090917300C8
:1011A00080917400981788F4A8E3B0E0E8E3F0E0D9
:1011B000808180688C93A8E3B0E0E8E3F0E0808170
:1011C0008F7B8C938FEF8093880080917400809345
:1011D000730084E18093740080918900813009F06C
:1011E00094C0A8E3B0E0E8E3F0E080818F7E8C93C8
:1011F000A8E3B0E0E8E3F0E080818F7D8C93A5E385
:10120000B0E0E5E3F0E0808180648C9380E090E0E2
:10121000AAE7B4E4898F9A8FAB8FBC8F698D7A8DE2
:101220008B8D9C8D20E030E04AE753E40E941F0242
:10123000DC01CB018D8B9E8BAF8BB88F6D897E8946
:101240008F89988D20E030E040E85FE30E947903C9
:1012500088232CF481E090E09C8B8B8B3FC06D89C0
:101260007E898F89988D20E03FEF4FE757E40E94F9
:10127000190318164CF5698D7A8D8B8D9C8D20E0A5
:1012800030E040E251E40E941F02DC01CB01BC01CE
:10129000CD010E944900DC01CB019C8B8B8B0FC0E0
:1012A00089E190E09A8B898B89899A890197F1F776
:1012B0009A8B898B8B899C8901979C8B8B8B8B89D3
:1012C0009C89009769F714C06D897E898F89988DF4
:1012D0000E944900DC01CB019C8B8B8B8B899C8904
:1012E000988B8F878F8598890197F1F7988B8F87D7
:1012F000A5E3B0E0E5E3F0E080818F7B8C93809103
:10130000890081508093890009C0809189008230D2
:1013100028F0809189008150809389008091880015
:10132000813009F094C0A8E3B0E0E8E3F0E0808108
:101330008F7B8C93A8E3B0E0E8E3F0E080818F77C7
:101340008C93A5E3B0E0E5E3F0E0808180688C93C6
:1013500080E090E0AAE7B4E48B879C87AD87BE87E6
:101360006B857C858D859E8520E030E04AE753E4DF
:101370000E941F02DC01CB018F839887A987BA875F
:101380006F81788589859A8520E030E040E85FE3C9
:101390000E94790388232CF481E090E09E838D8362
:1013A0003FC06F81788589859A8520E03FEF4FE7C0
:1013B00057E40E94190318164CF56B857C858D85C2
:1013C0009E8520E030E040E251E40E941F02DC01F3
:1013D000CB01BC01CD010E944900DC01CB019E8301
:1013E0008D830FC089E190E09C838B838B819C81EE
:1013F0000197F1F79C838B838D819E8101979E835A
:101400008D838D819E81009769F714C06F817885E7
:1014100089859A850E944900DC01CB019E838D83DA
:101420008D819E819A83898389819A810197F1F7C1
:101430009A838983A5E3B0E0E5E3F0E080818F77CC
:101440008C938091880081508093880009C080919E
:101450008800823028F08091880081508093880035
:101460006C96DEBFCDBFCF91DF91FF91EF91BF9121
:10147000AF919F918F917F916F915F914F913F912C
:101480002F910F900FBE0F901F9018952F923F92A3
:101490004F925F926F927F928F929F92AF92BF9284
:1014A000CF92DF92EF92FF920F931F93CF93DF9330
:1014B000CDB7DEB7CA1BDB0B0FB6F894DEBF0FBE8D
:1014C000CDBF09942A88398848885F846E847D84DA
:1014D0008C849B84AA84B984C884DF80EE80FD80DC
:1014E0000C811B81AA81B981CE0FD11D0FB6F89452
:0E14F000DEBF0FBECDBFED010895F894FFCF13
:1014FE00000000000000000040792430191202386C
:10150E0000010101143738392F3435362A31323380
:06151E002D3C303D2B00C6
:00000001FF
